:10000000F26A65EF01F0FF0004EF04F0FF00FF006B
:100010000201FF00FF00FF000CEF04F0FF00FF00F3
:10012000FF00FF00FF00FF00FF00FF0000001201C2
:100130000002FFFFFF40C016DC05020101020001C2
:100140000902120001010080640904000000FFFFA1
:10015000FF00040309041403670065006B006B00D3
:1001600069006F002E00660069001C034700420012
:100170002D004300410052005400500050002D005B
:1001800044004900590001EE00F012EE00F01200A8
:1001900023D8186A196A000EF86E080EF76E000E62
:1001A000F66EF1DF0900F5501918E96EE16E18C01E
:1001B00019F0E750191AEFCF18F0F7508008F2E164
:1001C000000E60EC01F00900F5501862000C090007
:1001D000F5501962000CFF0CD6DF1A6A186A1AC0B3
:1001E00019F0080E1B6ED89018361936D8B009D8F9
:1001F0001B2EF9D718C0EEFF19C0E6FF1A3EEED746
:100200001200210E181A100E191A12000900F5CF4B
:10021000EEFFE82EFBD71200EECFF5FF0D00E82E23
:10022000FBD71200E6CFEEFFE82EFCD71200EE6AF5
:10023000E82EFDD712000400550EA76EAA0EA76E79
:10024000A6821200A6941200940EA66EF4DFFAD7CE
:10025000106EC40EA66EE6CFF5FF0C00ECDFA6B65E
:10026000F1D70900102EF7D7EDD7106E080E136ED8
:10027000F80E04D0106E400E136EC00EF6CF12F0C2
:10028000F616F6CF11F0F650125E00EE60F0135045
:10029000BDDF0A0000EE60F01250E9261050C2DF08
:1002A00011C0F6FFD1DF0A0000EE60F0EE50F56EEF
:1002B0000F00132EFBD7840EA66EBDDF0900C2D738
:1002C000F66EF76A200EF86E1200D0CFFEF70F011F
:1002D0008D6A830E966E856A9268936894689568B5
:1002E0005B695C695D695E695F69896A8A6A8B6A54
:1002F0008C6A5A6BFFEC02F09B8E700ED36E300E40
:10030000D26ED3A4FED7D2AEFCD7FCBE14D0FCBCB8
:1003100012D0D0A610D0D0A805D0D0A207D0D0A09F
:1003200005D009D0FFC7E8FF420805E0C8EC00F09F
:10033000E86600EF04F0CF0E7E6E7F68FC6A9F0EC9
:10034000D06EB56A900EB56EF168C00EF06E070102
:10035000FF6B156A07EC03F041EC03F0040060BA90
:10036000FDD7656A040065A0FDD707EC03F0040023
:10037000156614D865B007EC03F065BA659A65BCDC
:100380004DEC03F065A6F3D76150146E6596780BBB
:1003900001E0EDD7145057EC03F0E9D7152E0AD041
:1003A000FFEC02F007D8FF0007EEFFF0EF6E200E23
:1003B000156E1200166A400E176E0400162EFDD739
:1003C000172EFBD712000951400819E0E84A1ED049
:1003D000E84A33D00AAE000CE84A40D0E84A43D09D
:1003E000E84A4AD0E84A51D0E84A52D0E84A53D0C5
:1003F000000C400E8FEF03F0C00E8FEF03F0F9DF1B
:100400009EEC03F00A51D4EC01F0100CF5DF420E23
:100410000B6E020E0C6E010E0D6E020E60EC01F002
:100420000900F5CF0EF00900F5CF0FF0050E056EAF
:1004300010EE0BF0EAEC03F0A80CDBDF9EEC03F00F
:10044000F20E0A63000CC20E0B63000C9A0E0C63D2
:10045000000CF00E0D63000C0A8E100CCADF9EEC2F
:1004600003F00A9E100CC8DF19D80FC406F00EC4A2
:1004700005F00DAFA00CA80CBCDF9EEC03F00ED86D
:10048000F9EC03F024EC01F0100CB3DF07D8920C68
:10049000B0DF04D8940CADDF01D8910C0AC407F08A
:1004A0000BC408F00CC409F012000BD801B23AECEE
:1004B00001F001B428EC01F001B035EC01F0F2EFED
:1004C00003F014EE08F00151F9EF03F0095119E0BF
:1004D0000951060853E0095105081CE009510808B4
:1004E0001FE00951090824E009510A082DE00951CB
:1004F0000B0838E0000C000E8FEF03F0800E8FEF3A
:1005000003F0FCDF000EF86E010EF76E2C0EF66E97
:10051000020E71D0F0DF9EEC03F00AC403F0500C21
:10052000EDDF010E056E000E076E000E086EA80CC2
:10053000E2DF9EEC03F00A51E81203E0E80601E076
:10054000000C0A51006E100C810E8FEC03F0000EAF
:1005500094EC03F0000EF86E010EF76E2C0EF66EA2
:10056000010E49D0010E8FEC03F0000E94EC03F065
:10057000000E99EC03F09EEC03F0100CBFDF0B5162
:10058000E84E05D0E84E0CD0E84E18D0000C0A67B3
:10059000000C000EF86E010EF76E2E0EF66E29D0CE
:1005A0000A67000C000EF86E010EF76E400EF66E34
:1005B0000B000B00F5500A000A001DD00A5105E09F
:1005C000E84E0AD0E84E0FD0000C000EF86E010E77
:1005D000F76E520EF66E0DD0000EF86E010EF76E2D
:1005E000560EF66E06D0000EF86E010EF76E6A0E0D
:1005F000F66E0800F550056EF2EC03F0A00C609268
:10060000606A626A0FEE6AF0100E17EF01F00401E3
:10061000676A656A666A646A140E626E04EE00F0C8
:10062000000E17EC01F0608C636A006A6098609CB1
:1006300065A606D065960000000000000000F8D70F
:10064000160E6A6E080E026F480E066F040E036FD8
:10065000076F0C0E006F400E016F008F12000CD858
:10066000F9D7480EF7D7040E046F048F120004D890
:10067000FBD7056B480EF8D7080E02BEE88C027E49
:100680001200606A608660A6FDD71200009F049F7A
:10069000046A016A056A066A1200659C01B803D003
:1006A00001BA01D01200043E1200F0DF10D00401A4
:1006B000E8B45DD000513C0B340845E1E7DF0AD8CF
:1006C000016E6098028E01B80FD001BA16D0016A8F
:1006D000C0DFC9D7600E0815D8B466EF02F0400835
:1006E000D8B4E3EF01F0000C01BE02D0C2DFB1D7F5
:1006F0000FC406F00EC405F0B2D701BE02D0B1DFC0
:10070000B2D706500F5D05E34DE10E51055C05E0E3
:1007100049E30FC406F00EC405F0028C43D0086311
:1007200001D012000600000C0A63FCD70B67FAD751
:1007300012000C63F7D70D67F5D712000E67F2D7DA
:100740000F67F0D712000150B00B90080EE155EC86
:1007500002F00151055E000E065A066680D7056656
:100760007ED7019E056B85DF74D7019872D701BCD7
:1007700003C063FF0150B00BA00812E10551055EF4
:10078000000E065A06660ED005660CD002AC03D0E9
:10079000019E67DF68D7400E0563FAD7056B67D700
:1007A000019A61D702D808D862D70666400C400E7D
:1007B0000560120005501200056F0551D8B41200F3
:1007C00004EE48F001A60BD007C0E1FF08C0E2FF2D
:1007D00012EC01F0E1CF07F0E2CF08F0120009D8E7
:1007E00006EC01F0F6CF07F0F7CF08F0F8CF09F0EC
:1007F000120007C0F6FF08C0F7FF09C0F8FF12009B
:020000040030CA
:0400000021080623AA
:02000500D385A1
:060008000FC00FA00F4025
:00000001FF
