:10000000F26A09EF02F0FF0004EF04F0FF00FF00C6
:100010000101FF00FF00FF000CEF04F0FF00FF00F4
:10019000FF00FF00FF00FF00FF00FF000000120152
:1001A0000002FFFFFF40C016DC0501010102000153
:1001B0000902120001010080640904000000FFFF31
:1001C000FF00040309041403670065006B006B0063
:1001D00069006F002E00660069001C0347004200A2
:1001E0002D004300410052005400500050002D00EB
:1001F00044004900590001EE00F012EE00F0120038
:1002000023D8176A186A000EF86E080EF76E000EF3
:10021000F66EF1DF0900F5501818E96EE16E17C0AF
:1002200018F0E750181AEFCF17F0F7508008F2E1F6
:10023000000E98EC01F00900F5501762000C09005F
:10024000F5501862000CFF0CD6DF196A176A19C046
:1002500018F0080E1A6ED89017361836D8B009D88C
:100260001A2EF9D717C0EEFF18C0E6FF193EEED7D9
:100270001200210E171A100E181A12000900F5CFDD
:10028000EEFFE82EFBD71200EECFF5FF0D00E82EB3
:10029000FBD71200E6CFEEFFE82EFCD71200EE6A85
:1002A000E82EFDD712000400550EA76EAA0EA76E09
:1002B000A6821200A6941200940EA66EF4DFFAD75E
:1002C0000F6EC40EA66EE6CFF5FF0C00ECDFA6B6EF
:1002D000F1D709000F2EF7D7EDD70F6E080E126E6B
:1002E000F80E04D00F6E400E126EC00EF6CF11F055
:1002F000F616F6CF10F0F650115E00EE60F01250D8
:10030000BDDF0A0000EE60F01150E9260F50C2DF99
:1003100010C0F6FFD1DF0A0000EE60F0EE50F56E7F
:100320000F00122EFBD7840EA66EBDDF0900C2D7C8
:10033000F66EF76A200EF86E1200095110E00951AE
:10034000060826E00951050813E00951090816E0DE
:10035000000C000E99EF03F0800E99EF03F0FCDF24
:10036000000EF86E010EF76E9C0EF66E020E4DD06A
:10037000F0DF9EEC03F00AC402F0500CEADF9EECC2
:1003800003F00A51E80603E0E80601E0000C100C57
:10039000E3DF0B51E84E05D0E84E0CD0E84E18D004
:1003A000000C0A67000C000EF86E010EF76E9E0E30
:1003B000F66E29D00A67000C000EF86E010EF76E7B
:1003C000B00EF66E0B000B00F5500A000A001DD0AF
:1003D0000A5105E0E84E0AD0E84E0FD0000C000E9E
:1003E000F86E010EF76EC20EF66E0DD0000EF86EAE
:1003F000010EF76EC60EF66E06D0000EF86E010EF8
:10040000F76EDA0EF66E0800F550046EF2EC03F0AB
:10041000A00CD0CFFEF70F018D6A830E966E856A11
:1004200092689368946895685B695C695D695E69C8
:100430005F69896A8A6A8B6A8C6A5A6B0AEC03F074
:100440009B8E700ED36E300ED26ED3A4FED7D2AE7A
:10045000FCD7FCBE14D0FCBC12D0D0A610D0D0A8C3
:1004600005D0D0A207D0D0A005D009D0FFC7E8FFA3
:10047000420805E000EC01F0E86600EF04F0CF0E62
:100480007E6E7F68FC6A9F0ED06EB56A900EB56E68
:10049000F168C00EF06E0701FF6B146A12EC03F0F6
:1004A0004BEC03F0040060BAFDD7656A040065A058
:1004B000FDD712EC03F00400146614D865B012ECFA
:1004C00003F065BA659A65BC57EC03F065A6F3D7EF
:1004D0006150136E6596780B01E0EDD7135061EC17
:1004E00003F0E9D7142E0AD00AEC03F007D8FF0076
:1004F00007EEFFF0EF6E200E146E1200156A400E2C
:10050000166E0400152EFDD7162EFBD712000951CA
:10051000400819E0E84A1ED0E84A33D009AE000C82
:10052000E84A40D0E84A43D0E84A4AD0E84A51D0A5
:10053000E84A52D0E84A53D0000C400E99EF03F03D
:10054000C00E99EF03F0F9DF9EEC03F00A5178EC4E
:1005500002F0100CF5DF420E0A6E010E0B6E010E5A
:100560000C6E020E98EC01F00900F5CF0DF00900B9
:10057000F5CF0EF0050E046E10EE0AF0EAEC03F073
:10058000A80CDBDF9EEC03F0F20E0A63000CC20E37
:100590000B63000C9A0E0C63000CF00E0D63000C44
:1005A000098E100CCADF9EEC03F0099E100CC8DF08
:1005B00019D80FC405F00EC404F00DAFA00CA80CA0
:1005C000BCDF9EEC03F00ED8F9EC03F05CEC01F01C
:1005D000100CB3DF07D8920CB0DF04D8940CADDF59
:1005E00001D8910C0AC406F00BC407F00CC408F043
:1005F00012000BD800B272EC01F000B460EC01F014
:1006000000B06DEC01F0F2EF03F014EE08F00151D0
:10061000F9EF03F06092606A626A0FEE6AF0100E02
:100620004FEF01F00401676A656A666A646A140E36
:10063000626E04EE00F0000E4FEC01F0608C636A15
:100640006098609C65A606D06596000000000000DA
:100650000000F8D7160E6A6E080E026F480E066F7D
:10066000040E036F076F0C0E006F400E016F008FBA
:1006700012000CD8F9D7480EF7D7040E046F048F78
:10068000120004D8FBD7056B480EF8D7080E01BE40
:10069000E88C017E1200606A608660A6FDD71200B9
:1006A000009F049F036A006A046A056A1200659C41
:1006B00000B803D000BA01D01200033E1200F0DFF0
:1006C00010D00401E8B453D000513C0B34083BE196
:1006D000E7DF0AD8006E6098018E00B80FD000BA2C
:1006E00016D0006AC0DFC9D7600E0815D8B49DEFD8
:1006F00001F04008D8B487EF02F0000C00BE02D031
:10070000C2DFB1D70FC405F00EC404F0B2D700BEEB
:1007100002D0B1DFB2D705500F5D05E343E10E51C2
:10072000045C05E03FE30FC405F00EC404F0018C47
:1007300039D0086301D012000600000C0E67FCD708
:100740000F67FAD712000050B00B90080EE1F9ECD9
:1007500002F00151045E000E055A05668AD7046650
:1007600088D7009E056B8FDF7ED700987CD700BCB2
:1007700002C063FF0050B00BA00812E10551045EF7
:10078000000E055A05660ED004660CD001AC03D0ED
:10079000009E71DF72D7400E0563FAD7056B71D7E3
:1007A000009A6BD702D808D86CD70566400C400E6B
:1007B0000460120004501200056F0551D8B41200F5
:1007C00004EE48F000A60BD006C0E1FF07C0E2FF30
:1007D0004AEC01F0E1CF06F0E2CF07F0120009D8B1
:1007E0003EEC01F0F6CF06F0F7CF07F0F8CF08F0B7
:1007F000120006C0F6FF07C0F7FF08C0F8FF12009E
:020000040030CA
:0400000021080623AA
:02000500D385A1
:060008000FC00FA00F4025
:00000001FF
